{
  "contractName": "arbitrage",
  "abi": [
    {
      "inputs": [
        {
          "internalType": "address",
          "name": "_router",
          "type": "address"
        },
        {
          "internalType": "address",
          "name": "_lusd",
          "type": "address"
        },
        {
          "internalType": "address",
          "name": "_troveManager",
          "type": "address"
        }
      ],
      "stateMutability": "nonpayable",
      "type": "constructor"
    },
    {
      "anonymous": false,
      "inputs": [
        {
          "indexed": false,
          "internalType": "uint256",
          "name": "ethBalance",
          "type": "uint256"
        }
      ],
      "name": "CurrentBalance",
      "type": "event"
    },
    {
      "stateMutability": "payable",
      "type": "fallback"
    },
    {
      "inputs": [],
      "name": "LUSD",
      "outputs": [
        {
          "internalType": "contract ILUSDToken",
          "name": "",
          "type": "address"
        }
      ],
      "stateMutability": "view",
      "type": "function"
    },
    {
      "inputs": [],
      "name": "owner",
      "outputs": [
        {
          "internalType": "address",
          "name": "",
          "type": "address"
        }
      ],
      "stateMutability": "view",
      "type": "function"
    },
    {
      "inputs": [],
      "name": "troveManager",
      "outputs": [
        {
          "internalType": "contract ITroveManager",
          "name": "",
          "type": "address"
        }
      ],
      "stateMutability": "view",
      "type": "function"
    },
    {
      "inputs": [],
      "name": "uniRouter",
      "outputs": [
        {
          "internalType": "contract IUniswapV2Router02",
          "name": "",
          "type": "address"
        }
      ],
      "stateMutability": "view",
      "type": "function"
    },
    {
      "stateMutability": "payable",
      "type": "receive"
    },
    {
      "inputs": [],
      "name": "return_uniRouter",
      "outputs": [
        {
          "internalType": "address",
          "name": "",
          "type": "address"
        }
      ],
      "stateMutability": "view",
      "type": "function"
    },
    {
      "inputs": [],
      "name": "return_lusd",
      "outputs": [
        {
          "internalType": "address",
          "name": "",
          "type": "address"
        }
      ],
      "stateMutability": "view",
      "type": "function"
    },
    {
      "inputs": [],
      "name": "return_troveManager",
      "outputs": [
        {
          "internalType": "address",
          "name": "",
          "type": "address"
        }
      ],
      "stateMutability": "view",
      "type": "function"
    },
    {
      "inputs": [
        {
          "internalType": "uint256",
          "name": "amountOutMin",
          "type": "uint256"
        },
        {
          "internalType": "address",
          "name": "_firstRedemptionHint",
          "type": "address"
        },
        {
          "internalType": "address",
          "name": "_upperPartialRedemptionHint",
          "type": "address"
        },
        {
          "internalType": "address",
          "name": "_lowerPartialRedemptionHint",
          "type": "address"
        },
        {
          "internalType": "uint256",
          "name": "_partialRedemptionHintNICR",
          "type": "uint256"
        },
        {
          "internalType": "uint256",
          "name": "_maxIterations",
          "type": "uint256"
        },
        {
          "internalType": "uint256",
          "name": "_maxFee",
          "type": "uint256"
        }
      ],
      "name": "ethToLusdAndBackArbitrage",
      "outputs": [],
      "stateMutability": "payable",
      "type": "function"
    },
    {
      "inputs": [],
      "name": "getEthBack",
      "outputs": [],
      "stateMutability": "payable",
      "type": "function"
    }
  ],
  "bytecode": "0x608060405234801561001057600080fd5b506040516107543803806107548339818101604052606081101561003357600080fd5b8101908080519060200190929190805190602001909291908051906020019092919050505033600360006101000a81548173ffffffffffffffffffffffffffffffffffffffff021916908373ffffffffffffffffffffffffffffffffffffffff160217905550826000806101000a81548173ffffffffffffffffffffffffffffffffffffffff021916908373ffffffffffffffffffffffffffffffffffffffff16021790555081600160006101000a81548173ffffffffffffffffffffffffffffffffffffffff021916908373ffffffffffffffffffffffffffffffffffffffff16021790555080600260006101000a81548173ffffffffffffffffffffffffffffffffffffffff021916908373ffffffffffffffffffffffffffffffffffffffff1602179055505050506105e78061016d6000396000f3fe60806040526004361061008a5760003560e01c8063a0e47bf611610059578063a0e47bf614610197578063cf59d563146101d8578063d794a01714610219578063ef7d367f146102c5578063f10cad9c146102cf57610091565b80633d83908a14610093578063660a825d146100d45780637952f3b4146101155780638da5cb5b1461015657610091565b3661009157005b005b34801561009f57600080fd5b506100a8610310565b604051808273ffffffffffffffffffffffffffffffffffffffff16815260200191505060405180910390f35b3480156100e057600080fd5b506100e9610336565b604051808273ffffffffffffffffffffffffffffffffffffffff16815260200191505060405180910390f35b34801561012157600080fd5b5061012a610360565b604051808273ffffffffffffffffffffffffffffffffffffffff16815260200191505060405180910390f35b34801561016257600080fd5b5061016b61038a565b604051808273ffffffffffffffffffffffffffffffffffffffff16815260200191505060405180910390f35b3480156101a357600080fd5b506101ac6103b0565b604051808273ffffffffffffffffffffffffffffffffffffffff16815260200191505060405180910390f35b3480156101e457600080fd5b506101ed6103d4565b604051808273ffffffffffffffffffffffffffffffffffffffff16815260200191505060405180910390f35b6102c3600480360360e081101561022f57600080fd5b8101908080359060200190929190803573ffffffffffffffffffffffffffffffffffffffff169060200190929190803573ffffffffffffffffffffffffffffffffffffffff169060200190929190803573ffffffffffffffffffffffffffffffffffffffff1690602001909291908035906020019092919080359060200190929190803590602001909291905050506103fa565b005b6102cd610586565b005b3480156102db57600080fd5b506102e4610588565b604051808273ffffffffffffffffffffffffffffffffffffffff16815260200191505060405180910390f35b600260009054906101000a900473ffffffffffffffffffffffffffffffffffffffff1681565b6000600260009054906101000a900473ffffffffffffffffffffffffffffffffffffffff16905090565b6000600160009054906101000a900473ffffffffffffffffffffffffffffffffffffffff16905090565b600360009054906101000a900473ffffffffffffffffffffffffffffffffffffffff1681565b60008054906101000a900473ffffffffffffffffffffffffffffffffffffffff1681565b600160009054906101000a900473ffffffffffffffffffffffffffffffffffffffff1681565b7fccd63b477c883a586271d6c5e65e8a82327bddc52ed1908a1078708f8c5c101a3073ffffffffffffffffffffffffffffffffffffffff16316040518082815260200191505060405180910390a16000600267ffffffffffffffff8111801561046257600080fd5b506040519080825280602002602001820160405280156104915781602001602082028036833780820191505090505b50905060008054906101000a900473ffffffffffffffffffffffffffffffffffffffff1673ffffffffffffffffffffffffffffffffffffffff1663ad5c46486040518163ffffffff1660e01b815260040160206040518083038186803b1580156104fa57600080fd5b505afa15801561050e573d6000803e3d6000fd5b505050506040513d602081101561052457600080fd5b81019080805190602001909291905050508160008151811061054257fe5b602002602001019073ffffffffffffffffffffffffffffffffffffffff16908173ffffffffffffffffffffffffffffffffffffffff16815250505050505050505050565b565b60008060009054906101000a900473ffffffffffffffffffffffffffffffffffffffff1690509056fea264697066735822122045d7a5136c1a79e350ba69a081ed440b44334093ab4b3dc546816c784419b77364736f6c63430007060033",
  "immutableReferences": {},
  "source": "// SPDX-License-Identifier: MIT\r\npragma solidity >=0.4.22 <0.9.0;\r\n\r\nimport './Interfaces/IUniswapV2Router02.sol';\r\n// import './Interfaces/IUniswapV2Pair.sol';\r\nimport './Interfaces/IUniswapV2Factory.sol';\r\n// import './Interfaces/IUniswapV2ERC20.sol';\r\nimport './Interfaces/ILUSDToken.sol';\r\nimport './Interfaces/ITroveManager.sol';\r\n\r\n\r\n\r\n\r\ncontract arbitrage {\r\n  \r\n\r\n    IUniswapV2Router02 public uniRouter;\r\n    ILUSDToken public LUSD;\r\n    ITroveManager public troveManager;\r\n    address public owner;\r\n\r\n    event CurrentBalance(uint256 ethBalance);\r\n    \r\n\r\n   // this function runs when the contract is deployed\r\n  constructor(address _router, address _lusd, address _troveManager) public {\r\n    // set initial message\r\n        owner = msg.sender;\r\n        uniRouter = IUniswapV2Router02(_router);\r\n        LUSD = ILUSDToken(_lusd);\r\n        troveManager = ITroveManager(_troveManager);\r\n  }\r\n\r\n    fallback() external payable { }\r\n    \r\n    receive() external payable { }\r\n\r\n    function return_uniRouter() public view returns (address) {\r\n        return (address(uniRouter));\r\n    }\r\n    function return_lusd() public view returns (address) {\r\n        return (address(LUSD));\r\n    }\r\n    function return_troveManager() public view returns (address) {\r\n        return (address(troveManager));\r\n    }\r\n   \r\n    \r\n    function ethToLusdAndBackArbitrage(\r\n        uint amountOutMin,\r\n        address _firstRedemptionHint,\r\n        address _upperPartialRedemptionHint,\r\n        address _lowerPartialRedemptionHint,\r\n        uint _partialRedemptionHintNICR,\r\n        uint _maxIterations,\r\n        uint _maxFee\r\n        ) public payable {\r\n        \r\n        emit CurrentBalance(address(this).balance);\r\n        \r\n         // amountOutMin must be retrieved from an oracle of some kind\r\n        address[] memory path = new address[](2);\r\n        path[0] = uniRouter.WETH();\r\n      //  path[1] = address(LUSD);\r\n        \r\n        //uniRouter.swapExactETHForTokens{ value: msg.value }(amountOutMin, path, address(this), block.timestamp);\r\n        \r\n        //emit CurrentBalance(address(this).balance, LUSD.balanceOf(msg.sender));\r\n        \r\n    /**     require(LUSD.approve(address(troveManager), amountOutMin), 'approve failed.');\r\n        \r\n        troveManager.redeemCollateral(\r\n            amountOutMin,\r\n            _firstRedemptionHint,\r\n            _upperPartialRedemptionHint,\r\n            _lowerPartialRedemptionHint,\r\n            _partialRedemptionHintNICR,\r\n            _maxIterations,\r\n            _maxFee\r\n        );\r\n        \r\n      //  emit CurrentBalance(address(this).balance, LUSD.balanceOf(address(this)));\r\n        \r\n      //  msg.sender.transfer(address(this).balance);\r\n        LUSD.transfer(msg.sender, LUSD.balanceOf(address(this)));\r\n        \r\n       // require(msg.value > address(this).balance, 'arbitrage failed.');\r\n*/\r\n        \r\n    }\r\n \r\n    function getEthBack() external payable {\r\n        // Fail safe method incase the contract was used wrong.\r\n      //  msg.sender.transfer(address(this).balance);\r\n    }\r\n\r\n}\r\n",
  "sourcePath": "C:\\Users\\rohit\\Desktop\\26_4\\ether\\src\\contracts\\arbitrage.sol",
  "compiler": {
    "name": "solc",
    "version": "0.7.6+commit.7338295f.Emscripten.clang"
  },
  "schemaVersion": "3.4.14",
  "updatedAt": "2023-05-27T14:22:48.090Z",
  "devdoc": {
    "kind": "dev",
    "methods": {},
    "version": 1
  },
  "userdoc": {
    "kind": "user",
    "methods": {},
    "version": 1
  }
}