{
  "contractName": "arbitrage",
  "abi": [
    {
      "inputs": [
        {
          "internalType": "address",
          "name": "_router",
          "type": "address"
        },
        {
          "internalType": "address",
          "name": "_lusd",
          "type": "address"
        },
        {
          "internalType": "address",
          "name": "_troveManager",
          "type": "address"
        }
      ],
      "stateMutability": "nonpayable",
      "type": "constructor"
    },
    {
      "anonymous": false,
      "inputs": [
        {
          "indexed": false,
          "internalType": "uint256",
          "name": "ethBalance",
          "type": "uint256"
        },
        {
          "indexed": false,
          "internalType": "uint256",
          "name": "_LUSDAmount",
          "type": "uint256"
        }
      ],
      "name": "CurrentBalance",
      "type": "event"
    },
    {
      "stateMutability": "payable",
      "type": "fallback",
      "payable": true
    },
    {
      "inputs": [],
      "name": "LUSD",
      "outputs": [
        {
          "internalType": "contract ILUSDToken",
          "name": "",
          "type": "address"
        }
      ],
      "stateMutability": "view",
      "type": "function",
      "constant": true
    },
    {
      "inputs": [],
      "name": "owner",
      "outputs": [
        {
          "internalType": "address",
          "name": "",
          "type": "address"
        }
      ],
      "stateMutability": "view",
      "type": "function",
      "constant": true
    },
    {
      "inputs": [],
      "name": "troveManager",
      "outputs": [
        {
          "internalType": "contract ITroveManager",
          "name": "",
          "type": "address"
        }
      ],
      "stateMutability": "view",
      "type": "function",
      "constant": true
    },
    {
      "inputs": [],
      "name": "uniRouter",
      "outputs": [
        {
          "internalType": "contract IUniswapV2Router02",
          "name": "",
          "type": "address"
        }
      ],
      "stateMutability": "view",
      "type": "function",
      "constant": true
    },
    {
      "stateMutability": "payable",
      "type": "receive",
      "payable": true
    },
    {
      "inputs": [
        {
          "internalType": "uint256",
          "name": "amountOutMin",
          "type": "uint256"
        },
        {
          "internalType": "address",
          "name": "_firstRedemptionHint",
          "type": "address"
        },
        {
          "internalType": "address",
          "name": "_upperPartialRedemptionHint",
          "type": "address"
        },
        {
          "internalType": "address",
          "name": "_lowerPartialRedemptionHint",
          "type": "address"
        },
        {
          "internalType": "uint256",
          "name": "_partialRedemptionHintNICR",
          "type": "uint256"
        },
        {
          "internalType": "uint256",
          "name": "_maxIterations",
          "type": "uint256"
        },
        {
          "internalType": "uint256",
          "name": "_maxFee",
          "type": "uint256"
        }
      ],
      "name": "ethToLusdAndBackArbitrage",
      "outputs": [],
      "stateMutability": "payable",
      "type": "function",
      "payable": true
    },
    {
      "inputs": [],
      "name": "getEthBack",
      "outputs": [],
      "stateMutability": "payable",
      "type": "function",
      "payable": true
    }
  ],
  "bytecode": "0x608060405234801561001057600080fd5b50604051610faa380380610faa8339818101604052606081101561003357600080fd5b8101908080519060200190929190805190602001909291908051906020019092919050505033600360006101000a81548173ffffffffffffffffffffffffffffffffffffffff021916908373ffffffffffffffffffffffffffffffffffffffff16021790555082600160006101000a81548173ffffffffffffffffffffffffffffffffffffffff021916908373ffffffffffffffffffffffffffffffffffffffff160217905550816000806101000a81548173ffffffffffffffffffffffffffffffffffffffff021916908373ffffffffffffffffffffffffffffffffffffffff16021790555080600260006101000a81548173ffffffffffffffffffffffffffffffffffffffff021916908373ffffffffffffffffffffffffffffffffffffffff160217905550505050610e3d8061016d6000396000f3fe6080604052600436106100595760003560e01c80633d83908a146100625780638da5cb5b146100a3578063a0e47bf6146100e4578063cf59d56314610125578063d794a01714610166578063ef7d367f1461021257610060565b3661006057005b005b34801561006e57600080fd5b5061007761021c565b604051808273ffffffffffffffffffffffffffffffffffffffff16815260200191505060405180910390f35b3480156100af57600080fd5b506100b8610242565b604051808273ffffffffffffffffffffffffffffffffffffffff16815260200191505060405180910390f35b3480156100f057600080fd5b506100f9610268565b604051808273ffffffffffffffffffffffffffffffffffffffff16815260200191505060405180910390f35b34801561013157600080fd5b5061013a61028e565b604051808273ffffffffffffffffffffffffffffffffffffffff16815260200191505060405180910390f35b610210600480360360e081101561017c57600080fd5b8101908080359060200190929190803573ffffffffffffffffffffffffffffffffffffffff169060200190929190803573ffffffffffffffffffffffffffffffffffffffff169060200190929190803573ffffffffffffffffffffffffffffffffffffffff1690602001909291908035906020019092919080359060200190929190803590602001909291905050506102b2565b005b61021a610dbe565b005b600260009054906101000a900473ffffffffffffffffffffffffffffffffffffffff1681565b600360009054906101000a900473ffffffffffffffffffffffffffffffffffffffff1681565b600160009054906101000a900473ffffffffffffffffffffffffffffffffffffffff1681565b60008054906101000a900473ffffffffffffffffffffffffffffffffffffffff1681565b7f01e9cb57b3e9fc6f23d2fb32796e5496214c3e018ed0006934e618fbe627f6a34760008054906101000a900473ffffffffffffffffffffffffffffffffffffffff1673ffffffffffffffffffffffffffffffffffffffff166370a08231306040518263ffffffff1660e01b8152600401808273ffffffffffffffffffffffffffffffffffffffff16815260200191505060206040518083038186803b15801561035b57600080fd5b505afa15801561036f573d6000803e3d6000fd5b505050506040513d602081101561038557600080fd5b8101908080519060200190929190505050604051808381526020018281526020019250505060405180910390a16060600267ffffffffffffffff811180156103cc57600080fd5b506040519080825280602002602001820160405280156103fb5781602001602082028036833780820191505090505b509050600160009054906101000a900473ffffffffffffffffffffffffffffffffffffffff1673ffffffffffffffffffffffffffffffffffffffff1663ad5c46486040518163ffffffff1660e01b815260040160206040518083038186803b15801561046657600080fd5b505afa15801561047a573d6000803e3d6000fd5b505050506040513d602081101561049057600080fd5b8101908080519060200190929190505050816000815181106104ae57fe5b602002602001019073ffffffffffffffffffffffffffffffffffffffff16908173ffffffffffffffffffffffffffffffffffffffff168152505060008054906101000a900473ffffffffffffffffffffffffffffffffffffffff168160018151811061051657fe5b602002602001019073ffffffffffffffffffffffffffffffffffffffff16908173ffffffffffffffffffffffffffffffffffffffff1681525050600160009054906101000a900473ffffffffffffffffffffffffffffffffffffffff1673ffffffffffffffffffffffffffffffffffffffff16637ff36ab5348a8430426040518663ffffffff1660e01b815260040180858152602001806020018473ffffffffffffffffffffffffffffffffffffffff168152602001838152602001828103825285818151815260200191508051906020019060200280838360005b8381101561060d5780820151818401526020810190506105f2565b50505050905001955050505050506000604051808303818588803b15801561063457600080fd5b505af1158015610648573d6000803e3d6000fd5b50505050506040513d6000823e3d601f19601f82011682018060405250602081101561067357600080fd5b810190808051604051939291908464010000000082111561069357600080fd5b838201915060208201858111156106a957600080fd5b82518660208202830111640100000000821117156106c657600080fd5b8083526020830192505050908051906020019060200280838360005b838110156106fd5780820151818401526020810190506106e2565b50505050905001604052505050507f01e9cb57b3e9fc6f23d2fb32796e5496214c3e018ed0006934e618fbe627f6a34760008054906101000a900473ffffffffffffffffffffffffffffffffffffffff1673ffffffffffffffffffffffffffffffffffffffff166370a08231336040518263ffffffff1660e01b8152600401808273ffffffffffffffffffffffffffffffffffffffff16815260200191505060206040518083038186803b1580156107b457600080fd5b505afa1580156107c8573d6000803e3d6000fd5b505050506040513d60208110156107de57600080fd5b8101908080519060200190929190505050604051808381526020018281526020019250505060405180910390a160008054906101000a900473ffffffffffffffffffffffffffffffffffffffff1673ffffffffffffffffffffffffffffffffffffffff1663095ea7b3600260009054906101000a900473ffffffffffffffffffffffffffffffffffffffff168a6040518363ffffffff1660e01b8152600401808373ffffffffffffffffffffffffffffffffffffffff16815260200182815260200192505050602060405180830381600087803b1580156108be57600080fd5b505af11580156108d2573d6000803e3d6000fd5b505050506040513d60208110156108e857600080fd5b810190808051906020019092919050505061096b576040517f08c379a000000000000000000000000000000000000000000000000000000000815260040180806020018281038252600f8152602001807f617070726f7665206661696c65642e000000000000000000000000000000000081525060200191505060405180910390fd5b600260009054906101000a900473ffffffffffffffffffffffffffffffffffffffff1673ffffffffffffffffffffffffffffffffffffffff1663bcd37526898989898989896040518863ffffffff1660e01b8152600401808881526020018773ffffffffffffffffffffffffffffffffffffffff1681526020018673ffffffffffffffffffffffffffffffffffffffff1681526020018573ffffffffffffffffffffffffffffffffffffffff168152602001848152602001838152602001828152602001975050505050505050600060405180830381600087803b158015610a5257600080fd5b505af1158015610a66573d6000803e3d6000fd5b505050507f01e9cb57b3e9fc6f23d2fb32796e5496214c3e018ed0006934e618fbe627f6a34760008054906101000a900473ffffffffffffffffffffffffffffffffffffffff1673ffffffffffffffffffffffffffffffffffffffff166370a08231306040518263ffffffff1660e01b8152600401808273ffffffffffffffffffffffffffffffffffffffff16815260200191505060206040518083038186803b158015610b1357600080fd5b505afa158015610b27573d6000803e3d6000fd5b505050506040513d6020811015610b3d57600080fd5b8101908080519060200190929190505050604051808381526020018281526020019250505060405180910390a13373ffffffffffffffffffffffffffffffffffffffff166108fc479081150290604051600060405180830381858888f19350505050158015610bb0573d6000803e3d6000fd5b5060008054906101000a900473ffffffffffffffffffffffffffffffffffffffff1673ffffffffffffffffffffffffffffffffffffffff1663a9059cbb3360008054906101000a900473ffffffffffffffffffffffffffffffffffffffff1673ffffffffffffffffffffffffffffffffffffffff166370a08231306040518263ffffffff1660e01b8152600401808273ffffffffffffffffffffffffffffffffffffffff16815260200191505060206040518083038186803b158015610c7557600080fd5b505afa158015610c89573d6000803e3d6000fd5b505050506040513d6020811015610c9f57600080fd5b81019080805190602001909291905050506040518363ffffffff1660e01b8152600401808373ffffffffffffffffffffffffffffffffffffffff16815260200182815260200192505050602060405180830381600087803b158015610d0357600080fd5b505af1158015610d17573d6000803e3d6000fd5b505050506040513d6020811015610d2d57600080fd5b810190808051906020019092919050505050473411610db4576040517f08c379a00000000000000000000000000000000000000000000000000000000081526004018080602001828103825260118152602001807f617262697472616765206661696c65642e00000000000000000000000000000081525060200191505060405180910390fd5b5050505050505050565b3373ffffffffffffffffffffffffffffffffffffffff166108fc479081150290604051600060405180830381858888f19350505050158015610e04573d6000803e3d6000fd5b5056fea264697066735822122009954ad8f11281335588339ebeaaa3424b2b576683fae7d170cf9776ff30555464736f6c634300060c0033",
  "immutableReferences": {},
  "source": "// SPDX-License-Identifier: MIT\r\n\r\npragma solidity ^0.6.6;\r\n\r\nimport './Interfaces/IUniswapV2Router02.sol';\r\n// import './Interfaces/IUniswapV2Pair.sol';\r\nimport './Interfaces/IUniswapV2Factory.sol';\r\n// import './Interfaces/IUniswapV2ERC20.sol';\r\nimport './Interfaces/ILUSDToken.sol';\r\nimport './Interfaces/ITroveManager.sol';\r\n\r\ncontract arbitrage {\r\n    ILUSDToken public LUSD;\r\n    IUniswapV2Router02 public uniRouter;\r\n    ITroveManager public troveManager;\r\n    address public owner;\r\n    \r\n    event CurrentBalance(uint256 ethBalance, uint256 _LUSDAmount);\r\n    \r\n    constructor(address _router, address _lusd, address _troveManager) public {\r\n        owner = msg.sender;\r\n        uniRouter = IUniswapV2Router02(_router);\r\n        LUSD = ILUSDToken(_lusd);\r\n        troveManager = ITroveManager(_troveManager);\r\n    }\r\n    \r\n    fallback() external payable { }\r\n    \r\n    receive() external payable { }\r\n    \r\n    function ethToLusdAndBackArbitrage(\r\n        uint amountOutMin,\r\n        address _firstRedemptionHint,\r\n        address _upperPartialRedemptionHint,\r\n        address _lowerPartialRedemptionHint,\r\n        uint _partialRedemptionHintNICR,\r\n        uint _maxIterations,\r\n        uint _maxFee\r\n        ) external payable {\r\n        \r\n        emit CurrentBalance(address(this).balance, LUSD.balanceOf(address(this)));\r\n        \r\n        // amountOutMin must be retrieved from an oracle of some kind\r\n        address[] memory path = new address[](2);\r\n        path[0] = uniRouter.WETH();\r\n        path[1] = address(LUSD);\r\n        uniRouter.swapExactETHForTokens{ value: msg.value }(amountOutMin, path, address(this), block.timestamp);\r\n        \r\n        emit CurrentBalance(address(this).balance, LUSD.balanceOf(msg.sender));\r\n        \r\n        require(LUSD.approve(address(troveManager), amountOutMin), 'approve failed.');\r\n        \r\n        troveManager.redeemCollateral(\r\n            amountOutMin,\r\n            _firstRedemptionHint,\r\n            _upperPartialRedemptionHint,\r\n            _lowerPartialRedemptionHint,\r\n            _partialRedemptionHintNICR,\r\n            _maxIterations,\r\n            _maxFee\r\n        );\r\n        \r\n        emit CurrentBalance(address(this).balance, LUSD.balanceOf(address(this)));\r\n        \r\n        msg.sender.transfer(address(this).balance);\r\n        LUSD.transfer(msg.sender, LUSD.balanceOf(address(this)));\r\n        \r\n        require(msg.value > address(this).balance, 'arbitrage failed.');\r\n    }\r\n    \r\n    function getEthBack() external payable {\r\n        // Fail safe method incase the contract was used wrong.\r\n        msg.sender.transfer(address(this).balance);\r\n    }\r\n}",
  "sourcePath": "C:\\Users\\Lenovo\\work\\liquity-arbitrage\\contracts\\arbitrage.sol",
  "compiler": {
    "name": "solc",
    "version": "0.6.12+commit.27d51765.Emscripten.clang"
  },
  "schemaVersion": "3.4.13",
  "updatedAt": "2023-04-19T18:31:38.510Z",
  "networkType": "ethereum",
  "devdoc": {
    "kind": "dev",
    "methods": {},
    "version": 1
  },
  "userdoc": {
    "kind": "user",
    "methods": {},
    "version": 1
  }
}